:020000040800F2
:1000000000800120190C0008650C0008650C000830
:10001000650C0008650C0008650C00080000000075
:10002000000000000000000000000000650C000857
:10003000650C000800000000650C0008650C000855
:10004000650C0008650C0008650C0008650C0008CC
:10005000650C0008650C0008650C0008650C0008BC
:10006000650C0008650C0008650C0008650C0008AC
:10007000650C0008650C0008650C0008650C00089C
:10008000650C0008650C0008650C00080000000005
:10009000000000000000000000000000650C0008E7
:1000A000650C0008650C0008650C0008650C00086C
:1000B000650C0008650C0008650C0008650C00085C
:1000C000650C0008650C0008650C0008650C00084C
:1000D000650C0008650C0008650C000800000000B5
:1000E000650C0008650C0008650C000800000000A5
:1000F000000000000000000000000000650C000887
:1001000000000000650C0008650C0008650C000884
:1001100000000000000000000000000000000000DF
:10012000650C0008650C0008650C0008650C0008EB
:10013000650C000800000000000000000000000046
:10014000000000000000000000000000650C000836
:10015000650C0008650C0008650C0008650C0008BB
:10016000650C0008650C000800000000000000009D
:10017000000000000000000000000000000000007F
:1001800000000000650C00080000000000000000F6
:10019000650C0008044B05481B1A062B02D9044BBA
:1001A00003B11847704700BF7B020020780200208F
:1001B0000000000005490648091A891001EBD171B9
:1001C000491002D0034B03B1184770477802002052
:1001D000780200200000000010B5064C237843B9D7
:1001E000FFF7D8FF044B13B10448AFF3008001239D
:1001F000237010BD78020020000000001CAC000835
:1002000008B5084B1BB108490848AFF300800848FF
:10021000036813B9BDE80840CCE7064B002BF9D0C2
:100220009847F7E7000000007C0200201CAC0008A3
:100230007402002000000000154B002B08BF134B78
:100240009D46A3F5803A00218B460F461348144A79
:10025000121A04F0F8FA0F4B002B00D098470E4BFF
:10026000002B00D098470020002104000D000D480D
:10027000002802D00C48AFF3008004F007F92000FA
:10028000290000F093FC03F0B1FD00BF000008005E
:100290000080012000000000000000007802002023
:1002A000A4080020000000000000000070470000CB
:1002B00010B5064B036003F118024C330446426547
:1002C0008365543002F018F8204610BD20A10008C4
:1002D000A0F15400ECE7A0F15800E9E710B504469E
:1002E00002F00DFC204610BD2DE9F0418E4BAEB062
:1002F00004AA03F11006154618685968144603C489
:100300000833B3422246F7D1186820604FF4964173
:100310000024864809940A94ADF82C4001F07CFF33
:100320002246234641F66821814800F0C9F98149F7
:10033000814802F009F881497F4802F005F88049B8
:100340007D4802F001F8022000F05AF97D490E9034
:10035000794801F0F9FF022000F052F97A490D9036
:1003600075480C9401F0F0FF022000F049F977493C
:100370000F907148764C01F0E7FF022000F040F941
:10038000744910906C4801F0DFFF042000F038F948
:10039000109BA0F26C70013B11900CA8109304F01C
:1003A00037FB02F099F86C49634801F0CDFF27460E
:1003B0005E4801F039FF30B9A3681A6863681A42D1
:1003C00070D1E26870E05C4801F0B4FF63495A48BC
:1003D00001F0BAFF6249284606F014F9044638B124
:1003E00002466049544801F0AFFF5D490020F3E741
:1003F0005D49514801F0A8FF5C494F4801F0A4FF56
:100400005B494D4801F0A0FF5A494B4801F09CFF61
:10041000494801F08FFF5849C2B2474801F094FFA4
:100420005649454801F090FF022000F0E9F8544990
:100430000246414801F088FF37A3D3E90023514920
:100440003D48CDE90023302201F07EFF4FF07E5081
:1004500002F066F8204607F0F3FB31A3D3E900234E
:1004600007F054FC484B002207F07AFD02F04AFBEB
:1004700007F00EFF07F0F6FB2246CDE900014349E5
:100480002D4801F061FF631C4FF4B47293FBF2F44A
:1004900002FB14342E4A936819685368194237D105
:1004A000D26837E0E2681B041360002001F0F4FF1B
:1004B00006462EA84FF03C0840F8AC6D96FBF8F6C7
:1004C00004F00AF8324A0346642115A805F0C8FB77
:1004D00015AA3049184801F037FF96FBF8F22E496B
:1004E000154808FB126201F02FFF4FF4FA7002F07A
:1004F00025F8BB681A687B681A4201D1E26801E0FE
:10050000E2681B0413604FF4FA7002F017F84FE72B
:10051000D2681B04136099E7000000A0D7C7E73F2B
:10052000182D4454FB21094048830008A4020020F0
:100530001885000866830008F802002087830008F9
:10054000C3830008D0830008DD830008EA83000825
:1005500094020020F7830008BF8300083984000854
:100560005A8400085C8400086184000878840008CC
:100570008C840008BE840008C1840008C784000879
:10058000DA840008F08400080080664003850008D3
:1005900004840008208400082984000810B504465B
:1005A000FFF786FE204602F0AAFA204610BDA0F111
:1005B0005400F3E7A0F15800F0E7000010B50C4C30
:1005C000002303220221204601F0DAFD2046094CD7
:1005D000094A0A4902F08EFA00212046102204F04E
:1005E00032F920460521BDE8104001F0E1BE00BF10
:1005F000A40200209402002094010020B10200080F
:100600002DE9FF4704AD002405F80C4D0130C7B2B9
:10061000A946A0461E4801F08DFEC6B2A6F13003E1
:10062000092B0FD87B1E9C421BDA2E7085F80180A7
:1006300005F1010A013431461548E4B201F06EFEBD
:1006400055460EE0082E01D07F2E0AD1002CE1D0B5
:1006500031460F48013C01F061FEE4B205F8018C1F
:10066000013D2D2E0CD1002CD4D16C702E7005F1D3
:10067000010A3146064801F051FE55460124C9E7FA
:100680000D2EC7D1484603F099FB04B0BDE8F087B2
:100690006403002010B5074C0322022120460023EA
:1006A00001F06EFD2046044A0449BDE8104002F006
:1006B00021BA00BF1003002094010020B1020008FD
:1006C00002780A2AF0B547D1C278083A18BF012249
:1006D000002A41D1417A4579047AC6794D1B0179C6
:1006E0000134611A01EB0521857A5C1C2C44857963
:1006F000651BC47AA41B05EB042417464FF0800E3B
:1007000024B209B2A34227DA7FB100253FB216B264
:10071000B14205F1010518BF01322EB206BF013307
:10072000002292B2B742F2DC0BE00FFA8EF5455D83
:1007300005F0C006C02E16BF561C05F03F07B2B22A
:1007400000E000270EF101051FFA85FE15B28D426B
:10075000D8D101330022D5E7F0BD000000B585B047
:1007600072B60521684601F023FE10E0039B019A52
:100770001A60962001F0E2FE9DF90030013310D09E
:10078000019B039A1B041360962001F0D7FE9DF98C
:1007900000300133EAD106480649342201F0EAFD6F
:1007A000E4E703480349342201F0E4FDE8E700BF31
:1007B000809F0008989F00080F4A30B4936894689F
:1007C000B4F1006F1A4604D0103030BC42F820104B
:1007D00070470A4A03F5CA7553F8044B42F8044FB0
:1007E000AB42F9D14FF00052034B10309A6030BC4D
:1007F00042F82010704700BF00ED00E0FCFFFF1F33
:1008000070B5114C2368DA68910715D4DA6852077D
:1008100009D56FF004020D4E1A615D6A3368EB1A58
:10082000B3F57A7F00D270BD00F038FA23683560E6
:1008300005F57A759D6370BD6FF002021A6101F0D3
:100840005DFE2368E2E700BF480800207C0300202B
:10085000244B30B51A6C244C42F008021A641A6C0E
:1008600083B002F008020192019A1A6A42F008026B
:100870001A621A6A22F008021A6201F0F5F91B4B9B
:100880001B4A1B681B492160A2FB03239B0C00250C
:10089000013B4FF0FF3220466360E2602561A560B6
:1008A000656101F0CBF832201349FFF785FF134B48
:1008B0004FF480225A602946204601F051F8204624
:1008C000042101F04DF823680D495A6A0A6002F5C7
:1008D0007A729A63DA68284642F00402DA6003B05A
:1008E00030BD00BF00380240480800209C010020B5
:1008F00083DE1B43000C00400108000800E100E01B
:100900007C03002008B501F0AFF9BDE8084000F015
:10091000ABB900BF036870B51B6900210122044612
:100920009847431C06460ED0236820461B690021C9
:10093000022298472368054631461B69204600225B
:100940009847284670BD70BD02480221032201F07D
:10095000A5BA00BF84080020084B094A026010B401
:1009600003F58071002453F8042F824208BF1C60F5
:100970008B42F8D15DF8044B704700BF7C03002028
:1009800028A00008F0B50E4685B03649054605F0AA
:10099000FCF820B9344B1B6863B105B0F0BD2846A4
:1009A000324905F0F2F878B92F4B1B6843B10120AA
:1009B00005B0F0BD0190FFF7C7FF019805B0F0BD8D
:1009C000FFF7C2FF0120E8E72846294905F0DDF8D6
:1009D00010B3284B002402E00134402C21D053F8FE
:1009E000042F002AF8D12B783A2B33D0294602A8BD
:1009F00001F05EFB02A801F0B1FB90B102A801F08A
:100A000093FB88B102A801F099FB03464BB11A4A47
:100A1000E01C42F82430C0E7134B1B68B3B102203E
:100A2000BBE74FF0FF30B8E702A801F06DFB0546C9
:100A30000028F6D0036802A89F6801F063FB26F443
:100A4000803201462846B8470346DFE7FFF77CFFC0
:100A50000220A2E72846094902AA05F027F8029BCE
:100A6000D4E700BF08A00008A804002018A00008D0
:100A700010A000087C030020800300204CA0000888
:100A800002280ADDC31E074A52F82300002142F85B
:100A9000231020B103685B681847002070474FF0AF
:100AA000FF30704780030020022812DC0E4B1B68C9
:100AB00070B50C4616460BB9FFF746FFA51936B1BF
:100AC00014F8011B094801F0DBFAAC42F8D13046BA
:100AD00070BD0338064B53F8200010B103681B6843
:100AE00018474FF0FF307047A8040020840800200A
:100AF0008003002002280DDC0C4B1B6810B50C464F
:100B00000BB9FFF721FF0A4801F0ACFA012320706E
:100B1000184610BD0338074B53F8200010B1036886
:100B20009B6818474FF0FF3318467047A804002011
:100B30008408002080030020022807DD0338064BCC
:100B400053F8200020B10368DB6818470120704784
:100B50004FF0FF30704700BF80030020022807DD00
:100B60000338064B53F8200020B103681B6918476F
:100B7000002070474FF0FF30704700BF8003002017
:100B8000022808B504D84FF400534B60002008BD7C
:100B900003F026F9092303604FF0FF3008BD00BFC2
:100BA00008B5012003F022F9704700BF08B5FFF730
:100BB000A9FEFFF7F9FFBDE80840FFF795BB00BFAE
:100BC000074A13681844EFF30881884202D2106084
:100BD00018467047034B0C221A604FF0FF307047E5
:100BE00098010020A0080020074C08B5236805469E
:100BF000986803F01BFA2368D86803F017FA05B960
:100C0000FEE7FFF7ABFDFBE710020020002104F038
:100C100098BE00BF03F048BADFF830D0002103E0EF
:100C20000B4B5B58435004310A480B4B42189A4215
:100C3000F6D30A4A02E0002342F8043B084B9A42EA
:100C4000F9D301F0F1F8FFF7F7FA704700800120BF
:100C500028AC0008940100207802002078020020CF
:100C6000A4080020FEE7000008B50B4B1A6842F408
:100C700000721A601A6842F480621A601A6842F4BC
:100C800080721A60032000F017F80F20FFF7E0FDD4
:100C900000F024F8002008BD003C0240024A13681E
:100CA00001331360704700BF80040020014B1868B7
:100CB000704700BF80040020074AD1684FF6FF0349
:100CC0000B4043F0BF6300F0070043F4003343EAF6
:100CD0000023D360704700BF00ED00E0704700BF05
:100CE0002DE9F04FDFF8D0C1D1F800E06D4F83B0AF
:100CF00000234FF0010803E00133102B00F0858042
:100D000008FA03F202EA0E049442F5D14D6825F088
:100D1000100ABAF1020F7BD04FEA43090322D0F840
:100D200000B002FA09F2D24305F0030602EA0B0B07
:100D300006FA09F60AF1FF3A4BEA0606BAF1010F84
:100D4000066040F28B80C66832408E6806FA09F66B
:100D50001643EA00C660CFD5DCF8442042F4804256
:100D6000CCF84420DCF8446023F0030206F480460B
:100D7000019602F1804203F003064FEA860B02F56A
:100D80009C320F2606FA0BFA474EDDF80490D2F893
:100D90000890B04229EA0A0974D006F58066B0428C
:100DA00072D0424EB04272D0414EB04274D0414EE9
:100DB000B0420CBF4FF0040A4FF0050A0AFA0BF6D6
:100DC00046EA090696603A68E64315F4803F14BF88
:100DD000224332403A607A6815F4003F14BF224340
:100DE00032407A60BA6815F4801F14BF2243324043
:100DF000BA60FA68AD0203F1010354BF06EA0204C7
:100E00001443102BFC607FF47BAF03B0BDE8F08F80
:100E10004FEAD30900EB890903F00706D9F820202F
:100E2000B6004FF00F0A0AFA06FB22EA0B0A0A691B
:100E3000B2404AEA0202C9F820204FEA43090322DD
:100E4000D0F800A002FA09F2D24305F0030602EA44
:100E50000A0A06FA09F64AEA06060660866802EAFF
:100E6000060ACE6806FA09F64AEA06068660D0F84F
:100E700004A0C5F300162AEA040A9E404AEA0606C0
:100E8000466060E700269BE708FA0BF698E74FF00C
:100E9000020A0AFA0BF693E74FF0030A0AFA0BF676
:100EA0008EE700BF003C0140000002400008024005
:100EB000000C024000100240003802404FF48073E2
:100EC00093FAA3F3B3FA83F39B0003F1844303F58E
:100ED000602301221A607047F0B50368DE0783B013
:100EE000044633D5A1498A6802F00C02042A00F0B6
:100EF000EE808A6802F00C02082A00F0E4809C4B25
:100F00009A4D00221A70FFF7D1FE064605E0FFF762
:100F1000CDFE801BC82800F2C5802B689903F6D44B
:100F2000934B22791A706368002B00F00C81FFF755
:100F3000BDFE8E4D064605E0FFF7B8FE801BC828B3
:100F400000F2B0802B689A03F6D523689F072ED550
:100F5000864A916811F00C0F00F0AB80916801F0A7
:100F60000C01082900F0A180E368002B00F0DA8072
:100F7000804B7E4D01221A60FFF798FE064605E081
:100F8000FFF794FE801B642800F28C802B68774A60
:100F90009807F5D51168F82090FAA0F02369B0FA07
:100FA00080F021F0F80183400B43136023681A0797
:100FB00020D4580734D4A369CBB16C4DAA6802F091
:100FC0000C02082A7CD0022B6B4B4FF000021A60F7
:100FD00000F0C780FFF76AFE2C46054604E0FFF7E5
:100FE00065FE401B64285DD823689B01F7D4002070
:100FF00003B0F0BD6369002B73D0604B5B4D0122E1
:101000001A60FFF753FE064604E0FFF74FFE801B11
:10101000642847D86B6F9B07F7D523685807CAD554
:10102000524B574D1A6C42F080521A641B6C03F0FD
:1010300080530193019B2B6843F480732B60FFF76F
:1010400035FE064604E0FFF731FE801B642829D8F0
:101050002B68D905F7D54B4B444D00221A70FFF78A
:1010600025FE41F28836074604E0FFF71FFEC01B4D
:10107000B04217D82B6F9A07F7D4424B227A1A70D6
:10108000A368002B00F0C080FFF710FE374D074625
:1010900041F288362B6F9B078DD4FFF707FEC01BEC
:1010A000B042F7D9032003B0F0BD526856023FF5B5
:1010B0005BAF2E4A1268950723D5E268012A20D03B
:1010C000012003B0F0BD4A6855027FF518AF274AEA
:1010D000126890037FF53AAF6268002A7FF436AF5A
:1010E000EEE7264A214D1360FFF7E0FD064604E0D7
:1010F000FFF7DCFD801B6428D4D86B6F9F07F7D403
:101100008BE71A4DF820296890FAA0F02269B0FA0E
:1011100080F021F0F80182400A432A601A077FF527
:1011200048AF67E7134A114D1360FFF7BFFD06464E
:1011300004E0FFF7BBFD801B6428B3D82B68990738
:10114000F7D4236833E7FFF7B1FD084D064604E006
:10115000FFF7ACFD801BC828A4D82B689B03F7D4ED
:10116000F3E6FFF7A3FD064613E000BF0038024098
:10117000023802400000474260004742800E47426A
:101180000070004070380240FFF790FD801B64281B
:1011900088D82B68244A9901F6D447F6C07797FA85
:1011A000A7F74FF44036B7FA87F796FAA6F64FF04E
:1011B0007060B6FA86F690FAA0F0A36A656AD4F871
:1011C00020C0D4F81CE0E16AB0FA80F05B0805FAB0
:1011D00007F4013B4CEA0E052C43B3408140234306
:1011E00012480B430121536001601446FFF75EFD76
:1011F000054605E0FFF75AFD401B64283FF652AF55
:1012000023689A01F6D5F2E6FFF750FD064D074632
:1012100041F288362B6F98077FF5CDAEFFF746FD7C
:10122000C01BB042F6D93DE700380240600047429B
:101230007C4A136803F00F038B422DE9F0410C4602
:10124000054609D2CBB21370136803F00F038B422B
:1012500058D00120BDE8F08103689A0706D572488E
:10126000AA68816821F0F0010A438260DF0727D570
:101270006B68012B79D09A1E012A6B4A126840F2E2
:1012800087809107E5D5684EB26822F003021343C8
:10129000B360FFF70BFD6B68012B07467CD0022B78
:1012A00000F08880032B65D041F2883804E0FFF716
:1012B000FDFCC01B404565D8B36813F00C0FF6D198
:1012C000584BE2B21A701B6803F00F03A342C0D15F
:1012D0002B685A0706D55448EA68816821F4E05122
:1012E0000A4382601B0707D54F4A2969936823F494
:1012F000604343EAC10393600F20FFF7A9FA00207F
:10130000BDE8F08103689F0706D54748AA68816851
:1013100021F0F0010A438260DE07DAD56B68012B09
:1013200056D09A1E012A404A12682ED9910790D5AC
:101330003D4CA26822F003021343A360FFF7B6FC02
:101340006B68012B064648D0022B54D0032B60D08B
:1013500041F2883704E0FFF7A9FC801BB84211D89E
:10136000A36813F00C0FF6D1B2E72F4A1268960368
:1013700089D46EE741F28834B368FFF797FCC01B4D
:10138000A042F9D90320BDE8F0819001D0D460E7F4
:1013900090013FF578AF5CE741F2883804E0FFF751
:1013A00085FCC01B4045EDD8B36803F00C03042B4B
:1013B000F5D185E741F2883804E0FFF777FCC01BE0
:1013C0004045DFD8B36803F00C03082BF5D177E76D
:1013D000154A12689403ABD43BE741F2883704E026
:1013E000FFF764FC801BB842CCD8A36803F00C0361
:1013F000042BF5D16CE741F2883704E0FFF756FC87
:10140000801BB842BED8A36803F00C03082BF5D1AB
:101410005EE741F28835A368FFF748FC801BA842CD
:10142000F9D9AFE7003C0240003802401C498B6804
:1014300003F00C03042B31D0082B2DD14A6830B4B3
:101440004D6802F03F0447F6C0734A68690293FA98
:10145000A3F347F6C07000EA02004ABF1149124ADE
:10146000B1FBF4F20E49B3FA83F320FA03F058BF4C
:10147000B2FBF4F202FB00F34FF44032486892FAF8
:10148000A2F200F44030B2FA82F2D04001304000C3
:1014900030BCB3FBF0F07047034870470148704719
:1014A0000038024000127A000024F40010B5FFF763
:1014B000BDFF084BF0229B6892FAA2F203F0F00302
:1014C000B2FA82F2044C0549D340E35CD84008608C
:1014D00010BD00BF003802405CA000089C01002045
:1014E00008B5FFF7E3FF074B4FF4E0529B6892FA11
:1014F000A2F203F4E053B2FA82F20349D340CB5C88
:10150000D84008BD003802405CA0000808B5FFF7CD
:10151000CDFF074B4FF460429B6892FAA2F203F4AE
:101520006043B2FA82F20349D340CB5CD84008BD95
:10153000003802405CA00008704700BF0368F0B5A7
:10154000D3F828E018691B68C1F804E003F48006AA
:1015500003F07F05C0F30E07360CC3F30540C3F359
:1015600006238F60CE708D7008704B70BAB9060973
:101570001A092C0906EB860704EB840402EB8206A9
:1015800005F00F0500F00F0003F00F0205EB440417
:1015900000EB470002EB46038C7008704B70002094
:1015A000F0BD00BF03685B68F0B4C3F3074003F00D
:1015B0003F05C3F34236C3F304230E708D70C87029
:1015C0004B70BAB91E092C090209B70004EB840458
:1015D00005F00F0503F00F033E4402EB820200F01A
:1015E0000F0005EB440403EB460300EB42008C7054
:1015F0004B70C8700020F0BC704700BF026838B55F
:10160000D36823F0A003D3600446FFF74FFB0546E1
:1016100005E0FFF74BFB401BB0F57A7F05D8236848
:10162000DB689B06F5D5002038BD032038BD00BF20
:1016300038B50368DA68520601D5002038BD4FF08E
:10164000FF32DA600446FFF731FB05462368DB68AA
:101650005B06F2D4FFF72AFB401BB0F57A7FF5D981
:10166000032038BD002846D0F8B5437F044603F078
:10167000FF02002B3BD023680220CA21532260774F
:10168000596220465A62FFF7D3FF48BB94E828000E
:101690009A68A16927696669D4F808E0D4F80CC093
:1016A00022F4E00222F040029A609A6815433D431A
:1016B00035439D60C3F810C01A6942EA0E421A61B0
:1016C000DA6822F08002DA601A6C22F480221A644E
:1016D0001A6CFF250A4301211A645D626177F8BD27
:1016E0002268FF210423516201206377F8BD02774D
:1016F000FFF722FFBFE70120704700BFF8B5037F67
:10170000012B00F0828001240223047743770568CF
:10171000002A3CD0AE684F780B7816F0400416BF14
:10172000CE78CC7034044FEA07278E7808BF05685E
:1017300047EA0343334343EA0406CA2253236A6257
:101740006B620C460746FFF773FF054600285FD122
:101750003968E068226906F07F3323F0FE430B60AE
:101760008B6823F480238B608B68034313438B6067
:10177000CB6823F08003CB608B689B0652D5FF209B
:101780000122002348627A773B772846F8BDAA6891
:101790000B7812F0400E15BF91F803E081F803E0DA
:1017A0004FEA0E4E0568092B4AD900220A3BDBB2EC
:1017B000092B02F10102F9D81201D4B24A7823436D
:1017C000092A4FEA03464FF0000407D90A3AD2B279
:1017D000092A04F10104F9D82401E4B28B782243E8
:1017E000092B4FEA02244FF0000707D90A3BDBB26E
:1017F000092B07F10107F9D83F01FFB246EA0E02B3
:1018000022433B4342EA030697E702252846F8BDF8
:101810003968FF2004220023012548627A773B774C
:101820002846F8BD3846FFF7E9FE08B93968A6E74B
:101830003A68FF21042351623D777B770125A4E7B5
:101840000024BBE7037F012B70B566D0012402237F
:101850000477437752B34D78CC788A780E78290292
:1018600041EA044444EA020343EA46340368CA21D5
:10187000532259625A620546FFF7DAFE06460028EF
:101880004ED12A6824F07F4323F0C0035360D3680D
:1018900023F08003D36093689B0651D5FF2001217C
:1018A0000023506269772B77304670BD4A78D406A2
:1018B00040D4CB78092B4FF0000607D90A3BDBB2A6
:1018C000092B06F10106F9D83601F6B23343092A8D
:1018D0004FEA03464FF0000507D90A3AD2B2092A67
:1018E00005F10105F9D82D01EDB28B782A43092BBA
:1018F0004FEA02254FF0000407D90A3BDBB2092B5F
:1019000004F10104F9D82401E4B20A7846EA42322B
:101910002A43234342EA0304A8E70226304670BD67
:101920002968FF2004220023012648626A772B776A
:10193000304670BD22F010020A32D2B24A70B8E7C7
:101940002846FFF75BFE2A680028A7D0FF21042362
:1019500051622E776B770126A6E700BF704700BF64
:1019600003680122186A8A4020EA020010B4186253
:10197000196A094C0A43A3421A6207D01A685DF833
:10198000044B42F0010200201A6070475A6C42F486
:1019900000425A64F2E700BF00000140264A036893
:1019A000904270B434D0B0F1804F20D0A2F57C4288
:1019B00090421CD002F58062904218D002F58062FD
:1019C000904214D002F59A32904214D002F580620F
:1019D000904210D002F5806290420CD08C680A6868
:1019E00003600123C462826270BC436170474A682D
:1019F00023F070031343CA688C68096823F44073AA
:101A0000134303600123C462816270BC4361704769
:101A10004A68CC688E680D68096923F07003134327
:101A200023F44073234303600123C662856201638C
:101A300070BC4361704700BF00000140C0B190F826
:101A4000393010B503F0FF02044663B1214602238A
:101A500051F8040B84F83930FFF7A0FF012384F814
:101A60003930002010BD80F83820FFF777FFEDE710
:101A7000012070472DE9F0410468C7682369C569F2
:101A8000D0F810C08268416923F4405E4EEA07072F
:101A9000064680692761E3684CEA020223F4164394
:101AA0000A4323F00C032A431343E360636923F4DE
:101AB00040730343B5F5004F6361514B39D09C42ED
:101AC00000F0818003F580639C427CD0FFF708FD25
:101AD00075684C4F00EB800000EB8000AD00B0FB60
:101AE000F5F5FFF7FDFCA7FB053572686D0900EB06
:101AF000800000EB800092002D01B0FBF2F8FFF7B0
:101B0000EFFC716800EB800000EB80008900B0FB07
:101B1000F1F1A7FB01314909642202FB1182120194
:101B20003232A7FB0223C3F343132B43A360BDE868
:101B3000F0819C4225D003F580639C4221D0FFF7C1
:101B4000CFFC75682F4F00EB800000EB80006D002C
:101B5000B0FBF5F5FFF7C4FC726800EB800000EB0A
:101B600080005200B0FBF2F8FFF7BAFCA7FB053586
:101B700071686D0900EB80002D0100EB80004900C9
:101B8000C5E7FFF7C3FC75681E4F00EB800000EB54
:101B900080006D00B0FBF5F5FFF7B8FC726800EB54
:101BA000800000EB80005200B0FBF2F8FFF7AEFCC3
:101BB000A7FB053571686D0900EB80002D0100EB76
:101BC00080004900A3E7FFF7A1FC75680D4F00EB0B
:101BD000800000EB8000AD00B0FBF5F5FFF796FC50
:101BE000A7FB053572686D0900EB800092002D019E
:101BF00000EB8000B0FBF2F8FFF788FC81E700BF44
:101C0000001001401F85EB51704700BF50B338B53D
:101C100090F83930044603F0FF02F3B12268022342
:101C200084F83930D36823F40053D3602046FFF79B
:101C300021FF23681A6922F490421A615A6922F03E
:101C40002A025A61DA68002142F400520125DA6062
:101C50000846E16384F8395038BD80F83820FFF732
:101C6000D3FFDBE7012070471848836803F00C03BB
:101C7000042B29D0082B0AD0154B144A154892681A
:101C80001549C2F30312825CD3400B60704743686E
:101C9000416813F4800F436818BF104801F03F02F9
:101CA0000CBF0B49B0FBF2F1C3F3881308BFB1FBC3
:101CB000F2F101FB03F2054B5B68C3F3014301330F
:101CC0005B00B2FBF3F3D8E7044BD6E700380240E1
:101CD0000024F4006CA000089C01002000127A008F
:101CE000214B224A196C70B541F0805119641B6C6C
:101CF00094B003F080530193019B136823F4404395
:101D000043F400431360136803F440430293012338
:101D1000029A089300B1052309934FF4A871072391
:101D2000042202244FF48006082508A813930E9479
:101D30000F96109511911292FFF7CEF8034610B14D
:101D4000002014B070BD4FF4805221460F2503A827
:101D500004940593079303950692FFF769FAB0FA86
:101D600080F0400914B070BD00380240007000409F
:101D7000234B244A196CF0B541F0805119641B6C57
:101D800095B003F080530193019B136823F4404303
:101D900043F400431360136803F4404302934FF08D
:101DA000030E1023002404210722012702254FF4EB
:101DB000A87608A80C931093DDF808C0CDF820E0B1
:101DC0000B9709940F940E95119612911392FFF7A9
:101DD00083F8034610B1204615B0F0BD4FF4805291
:101DE00029460F2403A804950593079303940692AC
:101DF000FFF71EFAB0FA80F0400915B0F0BD00BF41
:101E0000003802400070004008B50120FFF768FF6D
:101E100000B108BDFFF764FF0028FAD1FFF7A8FF63
:101E20000028F6D1FEE700BF174A1848D2F88830DC
:101E300070B543F47003164CC2F888302368154E11
:101E4000154D002143F001032360A160236823F0B6
:101E5000847323F480332360666023684FF0006648
:101E600023F480232360E16096600560FEF7FCFEAA
:101E7000FFF7CAFF236A43F008032362236A23F0B3
:101E80000803236270BD00BF00ED00E09C0100204C
:101E900000380240103000240024F4002DE9F04FF7
:101EA0000E4685B0044608465149154600F0D8FA5A
:101EB00050490746284600F0D3FA0146384600F05C
:101EC000BDFA411C074600F08C804B4B984270D005
:101ED00003F5806398425BD0A3F5504398420BD141
:101EE000464B1A6C42F400321A641B6C03F4003344
:101EF0000293029A0123636030463D4900F07CFA68
:101F000028463C4900F078FA721C03D03046012183
:101F100000F010FC6B1C03D02846012100F00AFCE5
:101F20006168DFF8F4806576890108EB01000246FC
:101F300000234FF4165E2676C4F808E0E3602361C0
:101F4000636100F1100C42F8083F013548F8017058
:101F5000C0F804E0C361C384C38553609360CCF8C8
:101F6000083022D001360CBF04230C23CCF80430F7
:101F7000FFF74CFE10B1224800F008FA6368214ACE
:101F80009B0158F80330934220D005B0BDE8F08F94
:101F90001A4B5A6C42F020025A645B6C03F0200327
:101FA0000393039B05236360A6E70823CCF8043062
:101FB000DEE7124B5A6C42F010025A645B6C03F07D
:101FC000100301930023019A636095E70E4B0F48BD
:101FD00021461C2201241C6002F02AFC05B0BDE849
:101FE000F08F0B480B49C82200F0C4F984E700BF0A
:101FF000D0A2000888A2000800100140003802406A
:1020000000A1000800440040A8040020840800202B
:102010007CA0000898A00008AC04002008B5426825
:10202000074B816003EB821318465960FFF7EEFD02
:1020300000B908BD0348BDE8084000F0A7B900BFDB
:10204000AC04002000A1000810B4044B446804480C
:10205000196040F824205DF8044B7047A404002068
:10206000840400204368054A9B01D25813689B06EC
:10207000FCD55068C0F30800704700BFAC040020D6
:102080004368054A9B01D25813681B06FCD5C1F36F
:1020900008015160704700BFAC0400204368034A48
:1020A0009B01D3581868C0F340107047AC0400205F
:1020B00038B50023036043600A782F2A044601D014
:1020C000204638BD4A78002AFAD0481C20604D7856
:1020D0002F2D13D085B1034600E06AB15D1A01339C
:1020E00023601A782F2AF8D129460133236000F0A3
:1020F000BBFC6060204638BD2946F8E71946034618
:10210000F3E700BF00687047436843B110B5044669
:10211000184600F0C7FC012803D1606810BD0020FC
:102120007047002010BD00BF406830B108B500F016
:10213000B9FCB0FA80F0400908BD704743684BB164
:1021400010B50446184600F0ADFC28B9606818B117
:10215000043810BD00207047002010BD40680030DA
:1021600018BF0120704700BF00F062B8A0F1540012
:10217000FFF7FABF00F060B8A0F15400FFF7FABF14
:1021800038B504461D4600F023F8294604F15400F2
:1021900000F090F8054B03F1080103F120025433DD
:1021A00021606265A365204638BD00BF18A1000804
:1021B00001EB4101C90043185A6B1B6A2AB11BB1DC
:1021C00001442431184610477047002BFCD01847B3
:1021D00038B504460E4B0360251D00234FF41650FE
:1021E000206563602846A360E36023616361A361A7
:1021F0002377637723626363A363E364FFF74EFE91
:10220000284622460349FFF71FFF204638BD00BF7E
:1022100080A10008B121000838B504460D460430FD
:10222000FFF7FCFE256538BD0430FFF737BF00BF60
:102230000430FFF717BF00BF10B504300C46FFF79E
:102240001FFF204610BD00BF00207047F8B58E1854
:10225000B1420F460ED005460C4601E0A64207D01B
:102260002B6814F8011B5B6A284698470130F5D1AA
:10227000E01BF8BD0C46FBE7F8B58E18B1420F46DF
:102280000ED005460C4603E004F8010BA64205D02B
:102290002B6828469B6A9847431CF5D1E01BF8BD84
:1022A0000C46FBE700207047002070470020704775
:1022B0000020704710B584B0044600F065FB0B4B5E
:1022C0000B4903F1080000223C3384E809006261F5
:1022D00001A8224603F0C6FB064901A801F0DAFF77
:1022E0006061FEF793FC204604B010BD88A1000891
:1022F0004CA00008CCA1000810B5074B03F1080260
:102300003C33044680E80C00406901F0D5FD2046CE
:1023100000F04EFB204610BD88A1000838B50446E9
:102320000D46406901F082FE28466169BDE83840EB
:1023300001F0DCBF10B50446406901F077FE60692A
:10234000BDE81040FEF766BC0EB430B582B005ABF8
:10235000044653F8045B4069019301F067FE294687
:102360006069019A02F0A6FE02B0BDE8304003B0F9
:10237000704700BF10B40C4613460146224602487F
:102380005DF8044B00F002B8D0A100080FB400B50E
:10239000064B83B004AA1B6852F8041BD86801924C
:1023A00002F088FE012001F021FD00BF1002002094
:1023B00038B50D46044600F0DFF8013511D094F928
:1023C000003001330ED06368E2681B0420461360BE
:1023D000012100F0EBF820460021BDE8384000F074
:1023E000E1B838BD024803493422FFF7C3FFEAE7EA
:1023F000809F0008989F0008431C10B5044619D020
:1024000091F90030581C04D10FE011F90C3F5A1C0F
:102410000BD09C42F9D12046896800F05DF9204636
:102420000021BDE8104000F085B90348BDE8104028
:10243000FFF7ACBF10BD00BF04A2000888420AD05D
:10244000421C09D0013106D008B50448FFF79EFFB1
:102450004FF0FF3008BD70470846704718A20008CB
:10246000421C0FD008B591F900305A1C04D10AE083
:1024700011F90C3F5A1C06D09842F9D14868411C0A
:1024800001D008BD70470348FFF780FF4FF0FF30D1
:10249000F7E700BF2CA200080B4B1B6810B50446E1
:1024A00053B1984740B9094B1B6803B19847084B93
:1024B0001B680BB100209847064B186800B1804795
:1024C00004B1206010BD00BFA4010020A0010020C5
:1024D000AC010020A8010020064B1B6810B5044683
:1024E00003B19847044B1B681BB12046BDE8104060
:1024F000184710BDA0010020AC010020014800F0E9
:10250000D3BA00BF80A2000838B5054600F00CFA27
:10251000044600F009FA001BA842FAD338BD00BFF8
:1025200007EE100ADFED047A67EE277AFDEEE77A10
:1025300017EE900AFFF7E8BF002474494FF47A734E
:1025400003FB00F0FFF7E0BF431C10B5044608D0C2
:102550002046002100F0C0F804F00F040120A04044
:1025600010BD034803492722FFF704FFF0E700BF2F
:1025700018A300082CA3000870B505464B1C0C4698
:1025800029700DD0C1F3031000F030F80646204644
:10259000FFF7DAFF06F1100318366860AB60EE60F3
:1025A00070BD00BF90F9000000F0C4B838B5054612
:1025B00090F90000431C0C460BD0012C04D00021E4
:1025C000BDE8384000F088B82146BDE8384000F04A
:1025D00083B8044804494622FFF7CCFE95F9000071
:1025E000EBE700BF809F00082CA3000800B587B070
:1025F000072859D8DFE800F012202E3C4A5858042A
:102600002D4B2E481A6B42F080021A631B6B03F0AD
:1026100080030593059B07B05DF804FB264B284813
:102620001A6B42F001021A631B6B03F00103009363
:10263000009B07B05DF804FB1F4B22481A6B42F069
:1026400002021A631B6B03F002030193019B07B0A4
:102650005DF804FB184B1C481A6B42F004021A6325
:102660001B6B03F004030293029B07B05DF804FBAD
:10267000114B16481A6B42F008021A631B6B03F0E9
:1026800008030393039B07B05DF804FB0A4B104853
:102690001A6B42F010021A631B6B03F010030493D1
:1026A000049B07B05DF804FB0A48FFF76FFE0020AB
:1026B00007B05DF804FB00BF00380240001C024078
:1026C000000002400004024000080240000C0240EA
:1026D00000100240C8A3000830B5431C87B005466F
:1026E0000C461BD0C5F30310FFF780FF05F00F0564
:1026F00004F00F010C4A0123AB40019352F8215022
:102700000295C4F302120323C4F3C31401A9039274
:1027100005940493FEF7E4FA07B030BD034804497A
:102720008122FFF727FEDDE794A3000818A3000825
:10273000ECA3000838B5431C04460D4614D0C4F37E
:102740000310FFF753FF04F00F04C2686400032373
:10275000A34022EA0303C360022DC3688CBF002597
:10276000A5401D43C56038BD02480349A622FFF7B6
:1027700001FEE4E718A30008ECA3000870B5224CA2
:10278000224D234B2B60236C43F080532364236C36
:102790008EB003F080530193019BFEF78FFB1D4920
:1027A000012300220B6004260A6002A80892049309
:1027B0000296FEF791FB00BBA36823F4F813A36015
:1027C000A36823F4F813A360236F43F48073236793
:1027D000FF22114BEA6001221A600C4800237F227D
:1027E0006B602B616B61AB61AA60FEF73BFF10B1C0
:1027F0000A48FFF7CBFD0EB070BD0948FFF7C6FDD4
:102800004FF0FF32E5E700BF00380240B406002079
:1028100000280040400E47423C0E47427CA400087E
:1028200050A40008024BD868C0F30010704700BFE6
:102830000028004070B5154C154B236090B002A9DC
:1028400020460022FEF77AFE01A920460022FEF76C
:10285000A9FE10A89DF80A309DF8052040F8243DF7
:102860009DF807309DF804609DF806509DF80840DB
:102870009DF809100D96013A64330B920C930A955A
:102880000994089102F0C4F810B070BDB40600209D
:1028900000280040F0B589B008AB184D43F81C0D76
:1028A000174A2A60184601F017FE00F110028CCA80
:1028B000643BC66841688DF80B300132037A8DF8AD
:1028C00009208DF80D108DF808708DF80A608DF8CC
:1028D0000C3003688DF80E3000244023224602A9F4
:1028E00028468DF80F3006940794FEF7ABFF284674
:1028F000224603A9FEF702FF09B0F0BDB40600208E
:1029000000280040054B186800B17047044A05498B
:10291000116001221A60FDF79BBF00BF1007002065
:10292000D4060020000C004008B5064B186830B9EA
:10293000054A0649116001221A60FDF789FF034B21
:10294000586A08BD10070020D4060020000C004083
:10295000034B1B685863DA6842F00202DA60704782
:10296000D4060020034B1A68D36823F00203D36017
:10297000704700BFD4060020024B1B686FF00202B4
:102980001A617047D406002010B5074B0446002298
:1029900040F8043B00F054F8044B03F108023433D0
:1029A00084E80C00204610BD28A00008A8A4000858
:1029B00010B5074B044603F108023433226040F897
:1029C000043F00F007F82046FDF7C6FF204610BD83
:1029D000A8A400088368094A026053B1084B1A682A
:1029E000824201D106E01A4653688342FBD1436814
:1029F0005360704742681A60704700BFF0A4000837
:102A00001407002083680C4A10B50446026053B1D5
:102A10000A4B1A68904201D10AE01A4653689C4258
:102A2000FBD163685360204600F069F8204610BD72
:102A300042681A60F7E700BFF0A4000814070020FE
:102A400010B40023064C027381600460436019B126
:102A5000044B1A68426018605DF8044B704700BF71
:102A6000F0A40008140700200D4B70B51C68064642
:102A70000D4614B912E0646884B1A36831462A4651
:102A80001846002BF7D003F0A7FD0028F3D1A0686B
:102A900003F09AFDA842EED1204670BD002070BD23
:102AA00014070020007B7047036870B5DB6805469B
:102AB00098476B685B6883B12A681C6853689847BD
:102AC000201A00286A680DDC50681168836853601A
:102AD0000029F0D040688847EBE72B68BDE87040DC
:102AE0009B6818472B6852681B691068BDE87040E6
:102AF000184700BF0B460146184601F063B901F0C4
:102B000039BE000030B51F4A21F00043934287B020
:102B10001CDD1D4A934205DD02460B4604F042FFD0
:102B200007B030BD02AA00F033F800F0030001281E
:102B3000DDE9042319D0022810D0D8B1DDE9020163
:102B400000F046FA01F1004107B030BD00230093C8
:102B50000022002300F068FF07B030BD0124DDE94A
:102B60000201009400F060FFECE7DDE9020100F0F3
:102B70002FFAD5E70124DDE90201009400F054FFAB
:102B8000CEE700BFFB21E93FFFFFEF7F0000000021
:102B90002DE9F04F944B21F0004B9B458FB006463A
:102BA0000F4640F38280914B9B450C46924626DCB3
:102BB000002983A3D3E9002340F3A08104F0F2FEAF
:102BC0008B4B9B4504460D4600F084807EA3D3E9E1
:102BD000002304F0E7FE02460B46CAE90023204624
:102BE000294604F0DFFE78A3D3E9002304F0DAFEDF
:102BF0000125CAE9020128460FB0BDE8F08F7D4BE0
:102C00009B4540F384807C4B9B4559DC4FEA2B5518
:102C1000A5F21645ABEB05573946064605F010FB05
:102C200005F00EF88046894642464B463046394606
:102C3000CDE9088904F0B6FE0022704B05F066F875
:102C40008946804605F0FCFA04F0FAFF06460F4676
:102C500032463B4640464946CDE90A6704F0A2FEAB
:102C60000022664B05F052F800220023CDE90C014A
:102C700005F0B4FA002800F06D8100233046394693
:102C8000002205F0ABFA002814BF012302235C4A9E
:102C90000192022100912A46514608A800F0C0FA8C
:102CA000002CC0F24981054606E000200021C2E95F
:102CB0000067C2E90201002528460FB0BDE8F08F89
:102CC00002460B4604F06EFE0025CAE90201CAE97D
:102CD0000001F1E73EA3D3E9002304F063FE3EA325
:102CE000D3E900230D46044604F05CFE02460B4681
:102CF000CAE900232946204604F054FE36A3D3E94E
:102D0000002304F04FFE0125CAE90201D4E700F0D8
:102D100041FF33A3D3E9002306460F4604F0F6FF34
:102D20000022384B04F040FE05F08AFA054604F014
:102D300087FF23A3D3E90023CDE9040104F0E6FFD4
:102D400002460B463046394604F02CFE1EA3D3E95A
:102D5000002380468946DDE9040104F0D7FF1F2DDA
:102D6000CDE9020152DC284B6A1E53F822309B4504
:102D70004CD002460B464046494604F013FE064638
:102D80000F46CAE9006732463B464046494604F0D2
:102D900009FEDDE9022304F005FE002CCAE9020168
:102DA0008ADA07F1004401F100436D42CAF800607D
:102DB000CAF80440CAF80800CAF80C307CE700BF23
:102DC00000004054FB21F93F3163621A61B4D03DE9
:102DD0000000601A61B4D03D7370032E8A19A33BC2
:102DE00083C8C96D305FE43FFB21E93F7BD90240D6
:102DF000FB21F93FFB213941FFFFEF7F00007041CC
:102E000078A500080000E03FF8A40008DDE90223EF
:102E10004046494604F0C6FD4FEA2B5BC1F30A5316
:102E2000C3EB0B0306460F46102BCAE90067AADD69
:102E30005DA3D3E90023DDE9040104F067FF064642
:102E40000F4602460B464046494604F0ABFDCDE92D
:102E5000060102460B464046494604F0A3FD3246B1
:102E60003B4604F09FFD52A3D3E9002306460F46DC
:102E7000DDE9040104F04AFF32463B4604F092FDCE
:102E80000B46CDE902010246DDE9060104F08AFDA8
:102E9000C1F30A53C3EB0B0B06460F46BBF1310FD0
:102EA000CAE9006776DD45A3D3E90023DDE9040123
:102EB00004F02CFF06460F4602460B46DDE90601EC
:102EC00004F070FD02460B4680468946DDE90601A6
:102ED00004F068FD32463B4604F064FD39A3D3E9B3
:102EE000002306460F46DDE9040104F00FFF3246D9
:102EF0003B4604F057FDCDE902013AE704F054FDEA
:102F00002D4B9B4504460D4626D025A3D3E900232F
:102F100004F04AFD02460B46CAE900232946204632
:102F200004F040FD1EA3D3E9002304F03DFD4FF063
:102F3000FF35CAE90201BFE6DAF80420DAF80C30FE
:102F400002F1004203F100434542CAF80420CAF8E6
:102F50000C30B1E603239AE613A3D3E9002304F06F
:102F600023FD13A3D3E900230D46044604F01CFD02
:102F700002460B46CAE900232946204604F012FD0A
:102F80000BA3D3E9002304F00FFD4FF0FF35CAE98E
:102F9000020191E6DDE90689F5E600BFAFF30080A6
:102FA0003163621A61B4D03D0000601A61B4D03D53
:102FB0007370032E8A19A33BFB21F93F0000002EFA
:102FC0008A19A33BC14920259A837B390000000060
:102FD0002DE9F04F21F00048B8F1795F85B0064641
:102FE0000F4692469B466BDA05F02AF9002800F05E
:102FF000EA8032463B463046394604F087FE74A3E9
:10300000D3E9002304460D4604F080FE72A3D3E901
:10301000002304F0C9FC22462B4604F077FE70A37F
:10302000D3E9002304F0BEFC22462B4604F06EFEDA
:103030006DA3D3E9002304F0B7FC22462B4604F02D
:1030400065FE6BA3D3E9002304F0ACFC22462B46BB
:1030500004F05CFE68A3D3E9002304F0A5FC22463B
:103060002B4604F053FECDE900010022664B2046BA
:10307000294604F04BFEDDE90023804689462046C0
:10308000294604F043FE524604460D465B46304650
:10309000394604F03BFE02460B462046294604F022
:1030A00081FC02460B464046494604F07BFC024642
:1030B0000B460020554904F075FC05B0BDE8F08FC3
:1030C00002460B4604F022FE41A3D3E90023044646
:1030D0000D4604F01BFE40A3D3E9002304F064FC7A
:1030E00022462B4604F012FE3DA3D3E9002304F050
:1030F00059FC22462B4604F009FE3BA3D3E90023EA
:1031000004F052FC22462B4604F000FE38A3D3E91B
:10311000002304F047FC22462B4604F0F7FD36A3BB
:10312000D3E9002304F040FC2B46224604F0EEFDD8
:10313000374B9845CDE9000197DD364B984539DC92
:10314000A8F500130022002030499046994604F06B
:1031500029FCCDE9020100222B4B2046294604F030
:10316000D5FD42464B4604F01DFCDDE900238046B8
:1031700089462046294604F0C9FD524604460D46BC
:103180005B463046394604F0C1FD02460B462046F8
:10319000294604F007FC02460B464046494604F027
:1031A00001FC02460B46DDE9020104F0FBFB05B021
:1031B000BDE8F08F9FED127B4FF000088DED027B94
:1031C000DFF85490C7E71149002005B0BDE8F08F43
:1031D000D43888BEE9FAA8BDC4B1B4BD9EEE213E84
:1031E000AD529C804F7E923E9015CB19A001FA3EC5
:1031F0007751C1166CC1563F4C5555555555A53F95
:10320000000000000000E73F0000E03F0000F03F4A
:103210003233D33F0000E93F0000D23F00000000FE
:103220002DE9F04FADF51B7D7D4CA49E7D4D54F8EE
:10323000264007942646D41E85FB0475E417C4EB8C
:10324000A50424EAE4741D460A93631CA3EB8303DC
:10325000013D02EBC30306932B460B940095651BBF
:10326000F4180390089116D42C44013422AEA59F83
:1032700008E057F8250004F0E3FC0135A542E6E834
:10328000020108D0002DF4DA013500200021A5420A
:10329000E6E80201F6D1079B002BC0F2B483079B3E
:1032A00003F1010B0A9B22A9DB001A4601EB03097B
:1032B0000493039B0DF5E47A19460AEBCB0B01EB63
:1032C0000208009B002BC0F28781039C4D4600261C
:1032D000002775E90223F4E8020104F017FD024615
:1032E0000B463046394604F05FFB444506460F4620
:1032F000EFD1EAE80267DA4509F10809E1D1079957
:103300000498039C049101F18043023B9B002044FC
:103310001A1D83460EA8024403440D920C93049A8E
:103320009AA901EBC203002A53E9284529DD0DF5CE
:10333000E47A0AEBC2080DF1340900223A4B204628
:10334000294604F0E3FC04F07BFF04F079FC002242
:10335000364B06460F4604F0D9FC02460B46204683
:10336000294604F01FFB04F06BFF78E9022349F8BB
:10337000040F3946304604F017FBD04504460D468D
:10338000DBD1DDF81890204629464A4600F090FC33
:1033900000224FF07F5304460D4604F0B7FC00F0C6
:1033A000FFFB0022224B04F0B1FC02460B462046F4
:1033B000294604F0F7FA0D46044604F041FF804622
:1033C00004F03EFC0B4602462946204604F0EAFA89
:1033D0004B46002B06460F4640F3E480049A0EA9A4
:1033E000013AC9F1180351F8225045FA03F101FAE4
:1033F00003F30EA8EB1A40F82230C9F117058844F0
:1034000043FA05F5002D40DD049B002B08F101086F
:1034100040F3C382002214460DA90498AE4611E081
:1034200080A60008ABAAAA2A0000703E00007041E6
:1034300000002040C3F180750BB10D600124013202
:1034400090420DDD51F8043F002CF3D0C3F1FF137F
:10345000013203F57F4390420B604FF00104F1DC31
:103460007546069B002B0EDD012B00F0A380022B7E
:1034700009D1049B5A1E0EAB0EA953F82230C3F398
:10348000150341F82230022D74D00022002330466B
:10349000394604F0A3FE002800F04582049A079BF9
:1034A000501E834210DC02F18043013B0EAA0D9CAA
:1034B00002EB8303002253F80419A34242EA0102FB
:1034C000F9D1002A40F0A480079B0EAA013B52F8D4
:1034D0002330002B40F05F820C9A012352F804192C
:1034E00001330029FAD0049AD31802F1010A9A454F
:1034F00009933CDC0B9B0A9A09990AEB0309049B8C
:10350000984690448B1809F18049A59A09F1FF3932
:1035100002EB890922AA02EBC303049372AB02EB0C
:10352000C80803EBCA0A59F8040F04F089FB009B92
:10353000002BE8E802014FF000064FF0000711DB16
:10354000039C454675E90223F4E8020104F0DEFB22
:1035500002460B463046394604F026FA5C450646DC
:103560000F46EFD1049B9845EAE80267DBD1099B3F
:103570000493D4E632463B460020B14904F012FAE7
:1035800006460F46002C80D0069AAD49002000F078
:103590008FFB02460B463046394604F003FA0646D6
:1035A0000F4672E711D1049B0EAA013B52F823503B
:1035B000ED1527E7049B5A1E0EAB0EA953F82230D7
:1035C000C3F3160341F822305DE700229D4B04F05F
:1035D00023FE58B9054658E700260027EAE80267A7
:1035E000DA4509F108097FF46CAE88E6049B002BEC
:1035F00008F10108C8BF02253FF70CAF32463B4631
:1036000000208F4904F0CEF9022506460F463CE71C
:103610000EA9CDF8248051F8203006990090183971
:103620000246039506916BB900F18043013B0EA859
:1036300000EB830353F80409013A18390028F9D044
:1036400000920691069A7E49002000F031FB009B13
:10365000002B04460D46C0F2BC81DA000DF5E4787B
:103660000EA901EB830608EB020B069204360BF160
:10367000080756F8040D04F0E3FA22462B4604F03E
:1036800045FB002267E902016F4B2046294604F002
:103690003DFB474504460D46EBD14AACDDF81C9096
:1036A00004944FF0000AB9F1000FC0F22781DFF84F
:1036B0009C815D4660A3D3E90023002600270024F7
:1036C00003E0A24510DBF8E80223F5E8020104F06C
:1036D0001DFB02460B463046394604F065F90134BD
:1036E000A14506460F46ECDA049B03EBCA03ABF197
:1036F000080BC3E9006770AB9B450AF1010AD2D100
:10370000A49B049C032B00F28D80DFE813F0D9000A
:10371000A100A1000400009B002B40F35781009BF7
:1037200003F1005B069B0BF1FF3BE2184FEACB0372
:10373000D2E9008903F10802103304EB020AE5180C
:103740003AED027B42464B4651EC170B8DED047B64
:1037500004F02AF906460F4602460B46DDE904014D
:1037600004F020F94B46424604F01EF965E90201D7
:103770004CAB9D42B046B946CAE90067E0D1009B18
:10378000012B40F32381069B234493ED007B4FEAFA
:10379000CB0B0BF1100A8DED007BA2440BF1080B53
:1037A00004EB0B05D0460DF59C7BCDF810A075E918
:1037B000029ADDE900014A46534604F0F5F8064650
:1037C0000F4602460B464846514604F0EBF8DDE949
:1037D000002304F0E9F868E90201C345CDE9006778
:1037E000C5E90067E3D1DDF810A0002000217AE9E7
:1037F000022304F0D9F8D345F9D1039B002B00F044
:10380000CE806268E368089F2568A4683D6002F185
:10381000004203F1004301F100417A60FB60BC60AB
:1038200038617961099B03F007000DF51B7DBDE848
:10383000F08F00BFAFF3008000000040FB21F93F94
:103840000000F03F0000E03F0000703E98A6000836
:10385000069D083525440020002175E9022304F067
:10386000A3F8A542F9D1039B002B4AD0089E02463B
:1038700001F1004386E80C000B460246D4E9000142
:1038800004F090F8009B002B0DDD4CAD0124F5E811
:10389000022304F089F8009B0134A342F7DA039B6A
:1038A000002B00F0A58001F1004308990246C1E910
:1038B0000223099B03F007000DF51B7DBDE8F08F87
:1038C000069B009D0833002000211C4474E902235C
:1038D000013D04F069F86B1CF8D1039B0246002BF4
:1038E00000F08C8001F100430899C1E90023099B95
:1038F00003F007000DF51B7DBDE8F08F00260027C3
:10390000F2E6089B0246C3E900010B46D4E9000138
:1039100004F048F8009C002C02460B46B5DC0899E0
:10392000C1E90223C5E73946069F03957A4230462E
:10393000CDF8248000F0BCF90022384B04460D4637
:1039400004F06AFC002836D00022354B2046294678
:1039500004F0DCF904F074FC064604F071F900226E
:103960002E4B04F0D3F902460B462046294604F0BC
:1039700019F804F065FC04990B4601331A460093CC
:103980003B46183306930B460EA941F82300134615
:1039900041F8236056E60123A5E5002461E5D4E95A
:1039A0000067D4E90223089DC5E90401C5E9006761
:1039B000C5E9022336E72946204604F041FC049A73
:1039C00000920EA941F822003CE64AAC00200021FA
:1039D00013E7A49B032B3FF625AF01A252F823F077
:1039E000173A00080F3A00080F3A0008CB390008D0
:1039F0000B4608990246C1E902235AE70B4608998B
:103A0000C1E9002373E70A9BDB00049377E40020FD
:103A100000214AAC27E7002000215EE7000070414A
:103A20000000703E000000002DE9F04F21F000463C
:103A3000B6F1795F85B004460D469046994604DAA2
:103A400004F0FEFB002800F0858022462B4620462D
:103A5000294604F05BF906460F4602460B4620460F
:103A6000294604F053F941A3D3E9002382468B464B
:103A70003046394604F04AF93EA3D3E9002303F067
:103A800091FF32463B4604F041F93CA3D3E90023C1
:103A900003F08AFF32463B4604F038F939A3D3E9F4
:103AA000002303F07FFF32463B4604F02FF937A393
:103AB000D3E9002303F078FF0E9BCDE900019BB30F
:103AC0000022294B4046494604F020F9DDE9002355
:103AD000CDE902015046594604F018F902460B465A
:103AE000DDE9020103F05EFF32463B4604F00EF9C9
:103AF00042464B4603F056FF19A3D3E9002306467E
:103B00000F465046594604F001F902460B4630462E
:103B1000394603F049FF02460B462046294603F08A
:103B200041FF05B0BDE8F08F02460B4630463946EE
:103B300004F0ECF80AA3D3E9002303F033FF524664
:103B40005B4604F0E3F822462B4603F02DFF05B058
:103B5000BDE8F08F2046294605B0BDE8F08F00BFD4
:103B6000495555555555C53F0000E03F7CD5CF5AC6
:103B70003AD9E53DEB9C2B8AE6E55A3E7DFEB157EE
:103B8000E31DC73ED561C119A0012A3FA6F8101157
:103B90001111813F21F00041704700BF000000007B
:103BA0002DE9F041C1F30A57A7F2FF35132D024664
:103BB0000B460C46884606461CDC002D3FDB3A4F80
:103BC0002F41864601EA070C5CEA0E0E17D034A39B
:103BD000D3E9002303F0E8FE0022002304F026FBD3
:103BE00020B1002C3FDB28EA07040026214630469E
:103BF000BDE8F081332D06DDB5F5806F2FD010467E
:103C00001946BDE8F081A7F213474FF0FF3E2EFAA8
:103C100007F73842F3D022A3D3E9002303F0C4FE10
:103C20000022002304F002FB0028DFD0002C20DB60
:103C3000444626EA070621463046BDE8F08118A32F
:103C4000D3E9002303F0B0FE0022002304F0EEFAD3
:103C50000028CBD0002C17DB00263446C6E703F043
:103C6000A3FEBDE8F0814FF4801343FA05F5A844A4
:103C7000B9E7142D10D00123C5F1340503FA05F579
:103C8000AE1928BF9844D3E724F00042074B3243D3
:103C900018BF1C460026A9E704F10108C8E700BFC9
:103CA0009C7500883CE4377EFFFF0F000000F0BFEA
:103CB000F8B5C1F30A5604460D460B46174606BB37
:103CC00021F00043034325D00022354B04F01EF8B9
:103CD000344A974204460D460B462ADBC1F30A5686
:103CE000363E3E4440F2FE72964228DC002E12DD43
:103CF00023F0FF4323F4E00343EA06552046294618
:103D0000F8BD40F2FF729642EBD102460B4603F03B
:103D10004BFEF8BDF8BD16F1350F1DDA4CF25033ED
:103D20009F4222462B4625DC19A1D1E9000100F073
:103D30003DF817A3D3E9002303F0E8FFF8BD2246BE
:103D40002B4615A1D1E9000100F030F812A3D3E908
:103D5000002303F0DBFFF8BD23F0FF4323F4E0036F
:103D6000363643EA06552046294600220E4B03F01C
:103D7000CDFFF8BD08A1D1E9000100F017F806A3B6
:103D8000D3E9002303F0C2FFF8BD00BFAFF300800A
:103D900059F3F8C21F6EA5019C7500883CE4377E7C
:103DA00000005043B03CFFFF0000903C03F0004394
:103DB00021F0004242EA0301704700BF0A220021BD
:103DC00002F004BD10B5054C13462CB10A4601465D
:103DD0000220AFF3008010BD204610BD000000009F
:103DE000014B1868704700BF1002002008B5074B50
:103DF000044613B10021AFF30080054B1868836AB5
:103E000003B198472046FCF7EFFE00BF000000001A
:103E100034A7000870B505460C4609B9002070BDEE
:103E200018B183690BB900F087F9204B9C4201D18E
:103E30006C6808E01E4B9C4201D1AC6803E01D4B4E
:103E40009C4208BFEC68B4F90C30002BE6D0214648
:103E5000284600F039F8236B064633B1216A28461C
:103E600098470028B8BF4FF0FF36A3891B0603D53B
:103E70002169284600F03EFF616B41B104F1440323
:103E8000994202D0284600F035FF00236363A16CFD
:103E900021B1284600F02EFF0023A36400F0B8F9FA
:103EA0000023A38100F0B5F9304670BDD0A600080C
:103EB000F0A6000810A70008024B01461868FFF79B
:103EC000A9BF00BF100200208A892DE9F0410546F4
:103ED00010070C4659D44B68002B02DC0B6C002BEE
:103EE00017DDE66AAEB102F48052002392B22F6869
:103EF0002B600AB1606D15E0216A01232846B047A6
:103F0000411C0FD12B686BB11D2B01D0162B03D197
:103F10002F600020BDE8F081A38943F04003A38116
:103F2000BDE8F081A3895A0705D56368C01A636BA1
:103F30000BB1236CC01A00230246E66A216A2846A8
:103F4000B047431CA38906D129681D293AD8214AC4
:103F5000CA40D60736D500226260D90422692260A1
:103F600004D5421C01D12B6803B96065616B2F60D9
:103F70000029CED004F14403994202D0284600F033
:103F8000B9FE00206063BDE8F0810F69002FC0D04A
:103F900093070E6808BF4B690F6018BF0023C7EB7B
:103FA00006088B6002E00744C0EB0808B8F1000F78
:103FB000AFDD43463A46216AA66A2846B047002844
:103FC000F1DCA38943F04003A3814FF0FF30BDE84B
:103FD000F08100BF0100402038B50B6905460C4652
:103FE000DBB118B183690BB900F0A6F80C4B9C4209
:103FF00001D16C6808E00B4B9C4201D1AC6803E036
:10400000094B9C4208BFEC68B4F90C302BB1214637
:104010002846BDE83840FFF757BF002038BD00BF35
:10402000D0A60008F0A6000810A70008014620B995
:10403000044B0549186800F00BBA044B1868FFF7E9
:10404000CBBF00BF34A70008D93F000810020020F2
:1040500038B50C46054618B183690BB900F06CF809
:104060000E4B9C4201D16C6808E00D4B9C4201D183
:10407000AC6803E00B4B9C4208BFEC686368013BF3
:10408000002B636005DA21462846BDE8384001F080
:10409000EBBB23685A1C2260187838BDD0A60008F4
:1040A000F0A6000810A70008024B01461868FFF7A9
:1040B000CFBF00BF10020020014900F0C9B900BF06
:1040C000D93F0008002310B50446036043608360B5
:1040D00081814366C281036143618361194608227D
:1040E0005C3000F0B0FB054B6362054BA362054BEF
:1040F000E362054B2462236310BD00BF015B00082F
:10410000275B00085F5B0008835B000870B56823CD
:104110004D1E5D430E4605F1740100F031FE04466C
:1041200040B1002180E842000C30A06005F1680237
:1041300000F089FB204670BD836910B5044633BB8F
:104140008364C3640365124B124A1B6882629842FF
:1041500004BF0123836100F01FF86060204600F077
:104160001BF8A060204600F017F80022E060042150
:104170006068FFF7A7FF01220921A068FFF7A2FFEF
:1041800002221221E068FFF79DFF0123A36110BD09
:1041900034A70008B9400008F8B51C4B1E68B36985
:1041A000074613B93046FFF7C7FF4836B46873684F
:1041B000013B04D4B4F90C507DB16834F8E733689E
:1041C0000BB13668F2E704213846FFF79FFF3060F5
:1041D0000028F6D10C233B60F8BD4FF6FF73E38156
:1041E0000123A38165662560A56065602561656121
:1041F000A5610822294604F15C0000F024FB6563F8
:10420000A563A564E5642046F8BD00BF34A7000897
:1042100070477047F7B50F46114601AA054602F0F0
:10422000DDFE064608B9002029E02846FFF7B4FF66
:1042300004460028F7D04FF4DB73019A394628462C
:1042400001F034FA002806DA0025FFF7E1FFA58126
:10425000FFF7DFFFE7E70B4B63620B4BA3620B4BF0
:10426000E3620B4B2363F305E081A681246205D54D
:10427000022300222146284600F040F8204603B0E1
:10428000F0BD00BF015B0008275B00085F5B000812
:10429000835B0008024B0A4601461868FFF7BABF65
:1042A0001002002070B50E461446054618B1836909
:1042B0000BB9FFF741FF0A4B9C4201D16C6808E043
:1042C000084B9C4201D1AC6803E0074B9C4208BFFD
:1042D000EC68224631462846BDE8704001F0F8B946
:1042E000D0A60008F0A6000810A70008024B0A4656
:1042F00001461868FFF7D6BF1002002000F000B892
:104300002DE9F8430C4690461E46054618B18369D0
:104310000BB9FFF711FF3D4B9C4201D16C6808E0DF
:104320003B4B9C4201D1AC6803E03A4B9C4208BF36
:10433000EC68A38903F48473B3F5847F03D1214629
:104340002846FFF749FEE76A0FB91D232BE0012E2F
:1043500004D0022E2BD056B3162324E02146284643
:10436000FFF73AFEA28902F4805292B20AB1606D60
:1043700005E0216A33462846B847411C14D0A3897A
:104380005A0706D56368C01A636B4BB1236CC01A19
:1043900006E01B0704D5236813B122699B1A184451
:1043A0008044002603E02B604FF0FF392BE02369A7
:1043B0001BB92146284600F087F921462846FFF719
:1043C0000BFE81460028EFD133464246216A28463B
:1043D000B8470130E8D0616B41B104F14403994220
:1043E00002D0284600F086FC002363632369236023
:1043F000A389002123F402636160A381082204F1F0
:104400005C0000F020FA4846BDE8F883D0A600081A
:10441000F0A6000810A700082DE9F041884600F139
:10442000480400268CB1A5686768013F0BD4AB89AE
:10443000012B06D9B5F90E30013302D02846C0470A
:1044400006436835F1E72468ECE73046BDE8F081C3
:104450002DE9F8438046894600F14804002694B1CE
:10446000A5686768013F0CD4AB89012B07D9B5F962
:104470000E30013303D029464046C847064368350D
:10448000F0E72468EBE73046BDE8F88370B50E4BE3
:104490000E4CE41AA41000251E46A54204D056F87E
:1044A000253098470135F8E703F042FF084C094BE7
:1044B000E41AA41000251E46A54204D056F8253063
:1044C00098470135F8E770BD6402002064020020BF
:1044D000700200206402002038B5074B1C68E36BB3
:1044E00005461BB9242000F03DF9E063E16B284646
:1044F000BDE8384000F002B8100200202DE9F0417C
:104500000C46804602F0F8FD21460746404602F080
:10451000F7FD466906F26C76B307044605D16422BE
:1045200096FBF2F302FB13634BB94FF4C87596FB8D
:10453000F5F305FB1365B5FA85F35B0900E001238C
:104540005F4A302505FB032502F08AFA02F08AFA59
:104550005C4B1B68F3B17B689E4205D13968D8F883
:104560000030FA6941B90AE0304602F0D1F900287A
:10457000F4D14FF0FF330DE0934208DB01E09342AA
:1045800007DABA6B9342ACBF0023012302E0002399
:1045900000E001232362236A012B0CBFF96B396A07
:1045A0004FF461633C2091FBF3F603FB1613616843
:1045B00093FBF0F200FB12302368891AA268616055
:1045C0001B1A921B3B2B2360A26003DD013161604B
:1045D0003C3B04E0002B03DA013961603C3323608B
:1045E00063683B2B03DD0132A2603C3B04E0002BFF
:1045F00003DA013AA2603C336360A368172B22DD23
:10460000E2690132E261A2690132062AC8BF0022D2
:10461000A261E268183B0132A3602369E26055F8A9
:1046200023108A4246DD01330C2B0CBF63692361E2
:10463000A2EB0102E26001BF01330022226163614B
:1046400008BFE26136E0002B34DAE269013AE26148
:10465000A269013A48BF0622A261E2681833013A12
:10466000E260A36032BB2369013B01D423611DE0FA
:104670000B23236163695A1E12F0030F626103F278
:104680006B7305D1642193FBF1F201FB12324AB93D
:104690004FF4C87193FBF1F201FB1233B3FA83F3C9
:1046A0005B0900E0012303F5B673E361236955F864
:1046B0002330E36002F0D5F92046BDE8F08100BF69
:1046C00098A700083C080020F0B58B899D0791B0A1
:1046D00006460C4626D4B1F90E10002909DAA38942
:1046E00013F0800F4FF0000514BF40274FF4806790
:1046F0000DE001AA02F0AAFC0028F0DB029D05F4FF
:104700007045A5F500514D424D414FF48067394643
:10471000304600F035FB60B9A3899A051DD443F0FB
:104720000203A38104F14703236023610123636132
:1047300013E00B4BB362A389206043F08003A38195
:10474000206167614DB1B4F90E10304602F070FD82
:1047500018B1A38943F00103A38111B0F0BD00BFDC
:10476000B9400008024B0146186800F009BB00BFC1
:1047700010020020024B0146186800F0BBBA00BFCF
:1047800010020020000000000000000000000000F7
:1047900001F0FF01102A2BDB10F0070F08D010F8F2
:1047A000013B013A8B422DD010F0070F42B3F6D1F6
:1047B000F0B441EA012141EA014122F007047FF00F
:1047C00000070023F0E80256083C85EA010586EA66
:1047D000010685FA47F5A3FA87F586FA47F6A5FAA2
:1047E00087F68EB9EED1F0BC01F0FF0102F00702AE
:1047F00032B110F8013B013A83EA010313B1F8D159
:104800000020704701387047002D06BF3546033839
:10481000073815F0010F07D1013015F4807F02BF72
:10482000013015F4C03F0130F0BC0138704700BFC3
:1048300010B5431E0A44914204D011F8014B03F80D
:10484000014FF8E710BD02440346934202D003F83B
:10485000011BFAE770470000F7B501683B290446E1
:1048600011D93C22684602F0A5FB019A63680099C1
:10487000002A0B446360BBBF3C3203F1FF3322606C
:104880002260B8BF636061683B2911D93C22684649
:1048900002F090FB019AA168009B002A0B44A360E0
:1048A000BBBF3C3203F1FF3362606260B8BFA360FC
:1048B000A168172911D91822684602F07BFB019ADA
:1048C000E168009B002A0B44E360BBBF183203F190
:1048D000FF33A260A260B8BFE36021690B2911D940
:1048E0000C22684602F066FB019A6169009B002A6F
:1048F0000B446361BBBF0C3203F1FF3322612261C1
:10490000B8BF63616369990712D1642193FBF1F227
:1049100001FB123272B903F26C734FF4C87193FB4E
:10492000F1F201FB1233002B14BF1C231D2302E004
:104930001C2300E01D23E268002A06DD334F4FF000
:10494000000E64254FF4C87639E0304F0B26642002
:104950004FF4C875D4F80CE0BEF1000F53DC2169A8
:1049600001392161013118D163692661591E8A0715
:1049700061610FD191FBF0F200FB121161B903F2FA
:104980006B7393FBF5F205FB1233002B14BF1C2352
:104990001D2302E01C2300E01D232269012A14BF0D
:1049A00057F822201A467244E260D3E78B422ADA93
:1049B00018460132091A0C2AE160226108D02269E6
:1049C000E168012AF2D057F822008142F1DC1AE0B6
:1049D0006369C4F810E05A1C910762610FD192FB21
:1049E000F5F105FB112262B903F26D7393FBF6F248
:1049F00006FB1233002B14BF1C231D23DFE71C23EF
:104A0000DDE71D23DBE703B0F0BD00BF68A70008AA
:104A10002DE9F047054602F06FFB81462846FFF777
:104A20001BFF95E80C003C2101FB0323AA68EC68FE
:104A30004FF4616808FB02312B69AB4A52F823201E
:104A4000013C012B14446B6911DD9E070FD16420DA
:104A500093FBF0F200FB123242B903F26C764FF492
:104A6000C87296FBF2F002FB106202B9013403F542
:104A70001C52103244F620608242EC611F4600F264
:104A80002E81462B22DD462240F26D1C64264FF417
:104A9000C87E900710D192FBF6F006FB102070B98B
:104AA00002F26C7898FBFEF00EFB1080002814BF19
:104AB00060464FF4B77004E040F26D1001E04FF42F
:104AC000B770013293420444E3D144E043D045221D
:104AD00040F26D1E64264FF4C8779A421ADD9007A3
:104AE00010D192FBF6F006FB102070B902F26C7C3C
:104AF0009CFBF7F007FB10C0002814BF70464FF472
:104B0000B77004E040F26D1001E04FF4B770241A62
:104B1000013AE2E7452BA8BF45239E071F4614D163
:104B2000642293FBF2F302FB13738BB907F26C70F0
:104B30004FF4C87390FBF3F203FB1203002B40F217
:104B40006D1308BF4FF4B77304E040F26D1301E03A
:104B50004FF4B773E41A654800FB041801F080FFB6
:104B600001F080FF624B1E68002E00F0A4802B6ACB
:104B70006869012BA8BF01239A46D9F8043000F2D6
:104B80006C7098420DD1D9F83820D9F82030D9F876
:104B90003C00D9F81C10D61AB045A1EB000105DA8B
:104BA00007E001F0B5FE0028EDD176E0121A90453D
:104BB00073DBD9F8002012B1884577DB01E0884526
:104BC00007DAB045ACBF00260126BAF1000F04DABF
:104BD00064E0BAF1000F63DB01268AEA060ABAF143
:104BE000010F5BD11B1A06B95B422A68D5F80CA0ED
:104BF0001A442A6028469844FFF72EFEEB68B3EB70
:104C00000A034BD0012B03DC981CD8BF012301E021
:104C10004FF0FF33EA691C449B181DD57B1E990792
:104C200014D1642193FBF1F201FB12338BB907F22B
:104C30006B774FF4C87297FBF2F302FB1377002FE8
:104C400040F26D1318BF4FF4B67324E04FF4B673FF
:104C500021E040F26D131EE0BA0714D1642197FBE6
:104C6000F1F201FB12728AB907F26C774FF4C87146
:104C700097FBF1F201FB1277002F40F26D1208BF93
:104C80004FF4B77204E040F26D1201E04FF4B772D6
:104C90009A42D8BF9B1AEB6100E05646012E0AD11A
:104CA000D9F83C00012608EB000708E0BAF1000F34
:104CB0004FF0000691DAD9F8200008EB000701F068
:104CC000D0FE0434072394FBF3F3C3EBC303E41ACD
:104CD00048BF07342E62AC613846BDE8F0874FF01C
:104CE000FF30BDE8F08700BF38A700088051010001
:104CF0003C08002030B500293ED051F8042C0B1F91
:104D00001E49002AB8BF9B180A680C4612B95A609F
:104D10000B6030BD9A420ED919685818824204BF00
:104D2000106852685A6004BF09181960236030BDCA
:104D3000994203D80A4651680029F9D11468151917
:104D40009D420AD11B682344D0188142136013D1BD
:104D50000868034413604B680DE002D90C2303601C
:104D600030BD18681C18A14204BF0C68496859601E
:104D700004BF00191860536030BD00BF1C0700203D
:104D800070B5CD1C25F0030508350C2D38BF0C255A
:104D9000002D064603DA0C233360002070BDA942C3
:104DA000F9D81F4B1C681A462146A1B10B685B1B42
:104DB0000ED40B2B03D90B60CC18CD501EE08C42C7
:104DC0000DBF63684B686360136018BF0C4615E045
:104DD0000C464968E9E7134C23681BB9304600F0DC
:104DE0006FFD20602946304600F06AFD431CD2D09A
:104DF000C41C24F00304A0420AD1256004F10B0076
:104E0000231D20F00700C31A09D05A42E25070BD9A
:104E1000211A304600F054FD0130EED1BBE770BDE1
:104E20001C070020180700209368013B002B10B4DA
:104E3000936009DA9469A34202DBCBB20A2B03D157
:104E40005DF8044B01F0D0BF1368581C1060197056
:104E5000C8B25DF8044B7047F8B506460F461446D5
:104E6000D518AC4208D03A4614F8011B3046FFF77B
:104E7000DBFF431CF5D100E00020F8BD2DE9F04F29
:104E80009DB00C4617460393064618B183690BB9CB
:104E9000FFF752F97F4B9C4201D1746808E07E4BCA
:104EA0009C4201D1B46803E07C4B9C4208BFF4688B
:104EB000A38918070CD5236953B100230993202334
:104EC0008DF8293030238DF82A30DFF8D4B144E052
:104ED0002146304601F0EEFF0028EED04FF0FF30C3
:104EE000D5E0039A111D12680391002A80F28C808C
:104EF000524243F002000792049098F800302E2BA3
:104F000000F08480032298F800106548FFF740FC09
:104F100048B14023CBEB000003FA00F0049B184398
:104F2000049008F1010898F800105E488DF82810E8
:104F3000062208F10107FFF72BFC002800F09580FE
:104F4000594B002B40F08880039B073323F0070365
:104F500008330393099B53440993B846454615F813
:104F6000013B1BB9B8EB07090FD003E0252BF9D0A3
:104F7000A846F3E74B463A4621463046FFF76CFF1A
:104F800001307FD0099B4B44099398F80030002BE7
:104F900078D000234FF0FF320493079305920693D5
:104FA0008DF853301A930127052229783F48FFF7DF
:104FB000EFFB05F10108049B38B13C4A801A07FA5F
:104FC00000F0184304904546EEE7D90644BF20227E
:104FD0008DF853201A0744BF2B228DF853202A78CE
:104FE0002A2A3FF47EAF079A00210A20A8460135FD
:104FF00098F80030303B092B03D800FB0232012126
:10500000F4E700293FF479AF079276E798F801308A
:105010002A2B0BD1039B1A1D1B680392002BB8BFD0
:105020004FF0FF3308F1020805936BE70023059367
:1050300008F1010019460A258046013098F8002041
:10504000303A092A03D805FB01210123F4E7002B9C
:105050003FF458AF059155E703AB00932246144B3C
:1050600004A93046AFF3008007E003AB009322466B
:105070000F4B04A9304600F09DF8B0F1FF3F824687
:105080007FF468AFA3895B063FF528AF09981DB090
:10509000BDE8F08FD0A60008F0A6000810A7000811
:1050A000FEA7000802A8000800000000F8A70008FA
:1050B000594E000813460A46014602480068FFF7A9
:1050C000DDBE00BF100200202DE9F04791461F46CB
:1050D0000A698B68DDF820809342B8BF1346C9F88F
:1050E000003091F8432006460C4612B10133C9F84E
:1050F00000302368990642BFD9F800300233C9F85E
:105100000030256815F0060510D104F1190A07E0F2
:105110000123524639463046C04701301AD0013586
:10512000E368D9F800209B1A9D42F1DB94F84330E4
:105130002268003318BF012392060FD5E1185A1CCC
:10514000302081F84300224494F8451082F843103F
:10515000023303E04FF0FF30BDE8F08704F1430273
:1051600039463046C0470130F4D02268D9F80050A3
:10517000E36802F00602042A08BF5D1B2269A368E7
:105180000CBF25EAE57500259342C4BF9B1AED18B4
:105190004FF000091A344D4509D001232246394603
:1051A0003046C0470130D5D009F10109F3E70020AE
:1051B000BDE8F0872DE9F04317460A7E85B06E2AD8
:1051C000984606460C460C9B01F1430E00F0AE805B
:1051D00011D8632A22D009D8002A00F0BB80582AAF
:1051E00040F0CA8081F84520834955E0642A1ED0EA
:1051F000692A1CD0C0E0732A00F0B08009D86F2A59
:105200002ED0702A40F0B8800A6842F020020A606E
:105210003EE0752A24D0782A3AD0ADE01A6801F130
:105220004205111D1960136884F84230A8E0216816
:105230001A6811F0800F02D0111D196008E011F0FA
:10524000400F02F10401196002D0B2F9003000E011
:105250001368002B3CDA2D225B4284F8432037E0B0
:1052600021681A6811F0800F02D0111D196007E043
:1052700011F0400F02F10401196001D0138800E021
:105280001368227E5C496F2A14BF0A2208221BE0A1
:1052900078225A4984F845202268186812F0800F55
:1052A00000F104051D6003D1550601D5038800E017
:1052B0000368D00744BF42F0200222601BB9226875
:1052C00022F0200222601022002084F8430001E036
:1052D00049490A226568A560002D08DB206820F096
:1052E000040020602BB9002D7DD175460CE0002B09
:1052F00079D07546B3FBF2F002FB1033CB5C05F8B6
:10530000013D03460028F5D1082A0BD12368DA07AE
:1053100008D5236962689A42DEBF302305F8013C54
:1053200005F1FF35C5EB0E0323612EE008681A680E
:10533000496910F0800F03D0101D1860136808E051
:1053400010F0400F02F104001860136801D01980BA
:1053500000E0196000232361754616E01A68111DEC
:1053600019601568626800212846FFF711FA08B134
:10537000401B6060636804E004F1420584F8422049
:1053800001232361002384F84330CDF800803B469D
:1053900003AA21463046FFF797FE013002D14FF0B5
:1053A000FF3026E023692A4639463046C04701309F
:1053B000F5D023689B0710D5002504F1190907E0F3
:1053C00001234A4639463046C0470130E7D001350F
:1053D000E368039A9B1A9D42F2DBE068039B9842C4
:1053E000B8BF184605E00B7884F8423004F1420556
:1053F0008AE705B0BDE8F08309A800081AA80008EC
:105400002DE9F84315468A6880460C4632B98A6908
:10541000002A0CBF01224FF0FF328A602268DFF8B9
:10542000A490D1065FBF1A68111D19601768002685
:10543000A06900BB2368DA065EBF2B681B783B704F
:105440002A686B6802F101022A60A26803F1FF3347
:1054500002F1FF326B6006F1010658BF0137A2600E
:10546000E2B1002BE4DCD4F880312946404698476D
:105470000028DDD012E0012806D12B681A78636974
:105480009B5C002BD6D119E0022807D12B68D9F8F4
:1054900000201B7813445B781B07CBD5236813F0DF
:1054A000100305D1E2680132E260A26902B13B70EB
:1054B00023691E4426610020BDE8F883002EEDD14B
:1054C000BDE8F8831C0200202DE9F04F9A46734B8B
:1054D0000C468346164693E8070087B003ABA768DF
:1054E00083E807006E4BA1696E4A032918BF1A466C
:1054F0007B1EB3F5AE7F84BF40F25D13A3602368CB
:10550000009243F4506388BF6FF4AE7504F11C0938
:1055100023608CBF7F1900274B464FF00008019392
:10552000316803AB022253F828000978FFF730F9FD
:10553000019B002833D0B8F1010F0BD162682AB962
:1055400008226260226842F400722260226822F41B
:10555000A0620CE0B8F1020F0AD1226802F4C06127
:10556000B1F5007F1BD11021616042F4807222608E
:10557000A268511EA16092B13268511C316012784C
:105580001A705D1C7368013B002B736006DCD4F855
:105590008031314658469847002840D12B4608F1C3
:1055A0000108B8F1030FBAD162680AB90A22626031
:1055B00062683D4960690193891A00F091F9019B85
:1055C0004FF000081D46A3685BB3316860690A7834
:1055D000805C30B3302A226808D1100506D508F166
:1055E00001084FB10133013FA36005E022F41062CE
:1055F00022600B782B7001357368013B002B7360C0
:1056000003DD33680133336005E0D4F8803131467F
:105610005846984728B9A368013BA360D3E74FF0E9
:1056200000082368D9050CD54D4508D915F8011C8B
:10563000D4F87C313246584698476F1E3D464D455A
:1056400027D0226812F010021BD12A706368009ED6
:1056500049465846B0472268DAF8003012F0200F69
:1056600007D1D20705D51A1DCAF800201B6818807B
:1056700004E01A1DCAF800201B681860E3680133B3
:10568000E3602369C9EB050545441D4425610020FD
:1056900000E0012007B0BDE8F08F00BF2CA8000893
:1056A000E1670008C166000848A8000838B5074C43
:1056B000054608461146002222601A46FBF762F9A9
:1056C000431C02D1236803B12B6038BDA008002021
:1056D00070B50E461446054618B183690BB9FEF73E
:1056E0002BFD164B9C4201D16C6808E0144B9C4288
:1056F00001D1AC6803E0134B9C4208BFEC68A3687F
:10570000013B002BA36011DAA269934207DB2368F7
:105710001E70236819780A290BD1224601E022461F
:1057200031462846BDE8704001F05EBB23681E701C
:1057300023685A1C2260187870BD00BFD0A60008EC
:10574000F0A6000810A70008838903F00903092BBD
:1057500001D1FEF76BBC002070470000F8B50C4685
:10576000054618B183690BB9FEF7E6FC394B9C423C
:1057700001D16C6808E0384B9C4201D1AC6803E071
:10578000364B9C4208BFEC68A2890023636093B249
:105790009E065AD458071AD4D90605D4092342F0D4
:1057A00040022B60A28150E01A070BD52146284603
:1057B000FEF712FC002848D1A389A06023F008035B
:1057C000A381A061A38943F00403A38110E0616B6E
:1057D00071B104F14403994202D02846FFF78AFAD6
:1057E000236C63600020606313B1E36B2360F8BD3A
:1057F00023691BB921462846FEF766FFA789BEB27A
:10580000B3070FD00123A381154B1649186806F082
:105810000906FEF701FE092EA78103D1214628467D
:10582000FEF752FB22692260666A6369216A284694
:10583000B047002860600BDCA38917BF002243F04B
:10584000200343F040036260A3814FF0FF30F8BDB6
:105850000020F8BDD0A60008F0A6000810A7000898
:1058600034A700084957000838B50C46054618B15A
:1058700083690BB9FEF760FC0E4B9C4201D16C684A
:1058800008E00D4B9C4201D1AC6803E00B4B9C42FD
:1058900008BFEC6821462846FFF760FF38B9636807
:1058A000013B636023685A1C2260187838BD4FF0B2
:1058B000FF3038BDD0A60008F0A6000810A70008E9
:1058C00038B5064C0023054608462360FBF778F9F7
:1058D000431C02D1236803B12B6038BDA00800200F
:1058E00070B50B785E2B13BF4A1C8A1C4B780021C5
:1058F00008BF0121441E00F1FF0504F8011FAC425E
:10590000FBD10BB9501E70BD81F00104C454114687
:105910000D782D2D01F1010206D05D2D0FD00DB1B6
:105920002B46F3E7084670BD4E785D2EF8D0B342A3
:10593000F6DC023101339E42C454FBDCE8E710463A
:1059400070BD00294FF480630CBF0222002200F0DA
:1059500001B800002DE9F0411D463D4B1E6804468C
:105960000F46904626B1B36913B93046FEF7E4FB03
:10597000384B9C4201D1746808E0374B9C4201D1FE
:10598000B46803E0354B9C4208BFF468B8F1020FDD
:1059900059D8002D57DB21463046FEF71DFB00236A
:1059A0006360A361A3891B0603D521693046FFF715
:1059B000A1F9A389B8F1020F23F08303A38112D0C8
:1059C00037BB002D08BF4FF480652846FEF7CAFE9E
:1059D0000746C8B94FF48060FEF7C4FE074688B991
:1059E0004FF0FF3000E00020A38943F00203A381C1
:1059F0000023A36004F14703236023610123636153
:105A0000BDE8F0814FF48065A38943F08003A38152
:105A1000B8F1010F05D1A38943F00103A3816B42C3
:105A2000A3610F4BB362A389276003F0080080B223
:105A30002761656148B113F0030F18BF0025A56009
:105A40000020BDE8F0814FF0FF30BDE8F08100BFDD
:105A500010020020D0A60008F0A6000810A7000839
:105A6000B94000080EB400B59CB04FF402711DABF4
:105A7000ADF81410029006906FF000410A480491AE
:105A800007914FF6FF7153F8042BADF8161000681C
:105A9000019302A901F08CFC029B00221A701CB039
:105AA0005DF804EB03B07047100200200EB430B56F
:105AB0009CB01FAC4FF4017254F8045BADF8142095
:105AC0000290069000F080FD0B4B039007900B9323
:105AD0000A48019400230F9314934FF6FF73ADF817
