:100000000C9434000C943E000C943E000C943E0082
:100010000C943E000C943E000C943E000C943E0068
:100020000C943E000C943E000C943E000C943E0058
:100030000C943E000C943E000C943E000C943E0048
:100040000C943E000C943E000C943E000C943E0038
:100050000C943E000C943E000C943E000C943E0028
:100060000C943E000C943E0011241FBECFEFD8E04C
:10007000DEBFCDBF0E9440000C9451000C940000E4
:10008000CF93DF9300D0CDB7DEB789819A810196F7
:100090009A83898387EA91E60197F1F700C000000F
:0600A000F4CFF894FFCF3D
:00000001FF
