:100000000C943E000C945B000C945B000C945B0021
:100010000C945B000C945B000C945B000C945B00F4
:100020000C945B000C945B000C945B000C945B00E4
:100030000C945B000C945B000C945B000C945B00D4
:100040000C945B000C945B000C945B000C945B00C4
:100050000C945B000C945B000C945B000C945B00B4
:100060000C945B000C945B000A0D496E7465676527
:10007000727A61686C206973743A200011241FBE83
:10008000CFEFD8E0DEBFCDBF11E0A0E0B1E0ECEDF6
:10009000F5E002C005900D92AE30B107D9F721E02E
:1000A000AEE0B1E001C01D92A431B207E1F70E94B9
:1000B0002F020C94EC020C9400009B01AC01213047
:1000C00081EE38074105510590F0569547953795D3
:1000D000279560E472E48FE090E00E945F02215077
:1000E00031098091C00082608093C00008C060E444
:1000F00072E48FE090E00E945F022150310930935A
:10010000C5002093C40088E18093C10086E08093FD
:10011000C20008959091C00095FFFCCF8093C60067
:1001200008950E948A0008958091C0008078089503
:100130008091C00087FFFCCF8091C60008950E9487
:10014000980090E0089560E07BE480E090E00E94F9
:100150005D0080E091E090931101809310019093F5
:100160000F0180930E0108958F929F92AF92BF92DC
:10017000CF92DF92EF92FF920F931F93CF93DF9373
:10018000FB01DC012C91222319F0482FDC0103C074
:100190001182108260C00A2F041B3D913111FBCFE8
:1001A0002D3221F40196015011E001C010E0C02F62
:1001B000DD27C7FDD0952197C80FD91FC880DD2442
:1001C000C7FCD094B0E3CB1AD108EE24D7FCE0945E
:1001D000FE2C02302CF10150812C912C540183947F
:1001E000AAE0B0E0A50194010E9481024B015C01EC
:1001F000AA91BB27A7FDB095D0979B01AC010E94A7
:100200008C02C60ED71EE81EF91E015049F7C11414
:1002100080E8D806E104F1041CF081E0812701C0E8
:1002200080E091E0C91690E8D906E104F10414F4E5
:10023000882329F01182108280E090E00EC0112303
:1002400041F0F094E094D094C094C11CD11CE11C06
:10025000F11CD182C08281E090E0DF91CF911F91AB
:100260000F91FF90EF90DF90CF90BF90AF909F9055
:100270008F900895DF92EF92FF920F931F93CF9389
:10028000DF93CDB7DEB72A970FB6F894DEBF0FBE67
:10029000CDBF1982D12C8E010F5F1F4F0E94980095
:1002A000982F80ED890F8A3088F485E08D1574F0E1
:1002B0007801EFEFEE1AFE0AF80190831182D394D1
:1002C000892F9A870E948A0087019A85983091F039
:1002D0009D32D1F4D110E2CF7801FFEFEF1AFF0A7F
:1002E000F801908311828DE20E948A008701DD244B
:1002F000D394D4CFDD2091F288E00E948A00F801E7
:1003000012928F01DA94CACF9D3041F6BE01685F28
:100310007F4FCE0101960E94B400811113C08D2D34
:10032000992787FD909599878887888599851816DC
:1003300019060CF0AECF88E00E948A008885998566
:100340000197F1CF888599852A960FB6F894DEBF7C
:100350000FBECDBFDF91CF911F910F91FF90EF9016
:10036000DF900895BF92CF92DF92EF92FF920F93AA
:100370001F93CF93DF93EC01009761F480E3DF914B
:10038000CF911F910F91FF90EF90DF90CF90BF9092
:100390000C948A0097FF03C08DE20E948A00CE0170
:1003A000D7FF03C09195819591098C0125E0B22E6C
:1003B00021E0C0E1D7E23AE0C32ED12CC801BE0152
:1003C0000E944B027B01222319F06115710531F067
:1003D00080E38E0D0E948A0020E001C021E0EC9EA7
:1003E000C001ED9E900DFC9E900D1124081B190B71
:1003F000CE01B6010E944B02EB01BA94F9F6DF91EF
:10040000CF911F910F91FF90EF90DF90CF90BF9011
:1004100008958AE00E948A008DE00C948A000F9370
:100420001F93CF93DF93EC018E0189910E948A0084
:10043000F80180818111F8CFDF91CF911F910F9149
:100440000895CF93DF93EC01FE018491882321F07E
:100450000E948A002196F8CFDF91CF910895CF9323
:10046000DF9300D000D000D0CDB7DEB70E94A3004C
:100470004AE0BE016F5F7F4F89E390E30E94B702BD
:1004800088E690E00E942102CE0101960E940F02B0
:100490000E940902FFCF97FB072E16F4009407D0A5
:1004A00077FD09D00E94940207FC05D03EF4909598
:1004B00081959F4F0895709561957F4F0895A1E2B2
:1004C0001A2EAA1BBB1BFD010DC0AA1FBB1FEE1FCE
:1004D000FF1FA217B307E407F50720F0A21BB30B19
:1004E000E40BF50B661F771F881F991F1A9469F795
:1004F00060957095809590959B01AC01BD01CF01F1
:1005000008950E94A802A59F900DB49F900DA49FEE
:10051000800D911D11240895B7FF0C9481020E9453
:100520008102821B930B0895AA1BBB1B51E107C0DC
:10053000AA1FBB1FA617B70710F0A61BB70B881F73
:10054000991F5A95A9F780959095BC01CD01089502
:10055000A29FB001B39FC001A39F700D811D112404
:10056000911DB29F700D811D1124911D0895BB270F
:100570004A3031F4992322F4BDE2909581959F4F42
:100580000C94C302BB27FB015527AA27880F991F8C
:10059000AA1FA41710F0A41B83955051B9F7A05DB2
:1005A000AA3308F0A95DA193009779F7B111B1932F
:1005B0001192CB010C94DC02DC01FC01672F7191DC
:1005C0007723E1F7329704C07C916D937083629139
:0C05D000AE17BF07C8F30895F894FFCFE2
:0E05DC00000000030000000091009F000000DE
:00000001FF
